{
  "_format": "hh-sol-artifact-1",
  "contractName": "ICOContract",
  "sourceName": "contracts/Presale.sol",
  "abi": [
    {
      "inputs": [
        {
          "internalType": "address",
          "name": "_tokenAddress",
          "type": "address"
        },
        {
          "internalType": "uint256",
          "name": "_tokenPrice",
          "type": "uint256"
        }
      ],
      "stateMutability": "nonpayable",
      "type": "constructor"
    },
    {
      "anonymous": false,
      "inputs": [
        {
          "indexed": true,
          "internalType": "address",
          "name": "buyer",
          "type": "address"
        },
        {
          "indexed": false,
          "internalType": "uint256",
          "name": "amount",
          "type": "uint256"
        }
      ],
      "name": "TokensPurchased",
      "type": "event"
    },
    {
      "inputs": [],
      "name": "ICOActive",
      "outputs": [
        {
          "internalType": "bool",
          "name": "",
          "type": "bool"
        }
      ],
      "stateMutability": "view",
      "type": "function"
    },
    {
      "inputs": [
        {
          "internalType": "address",
          "name": "",
          "type": "address"
        }
      ],
      "name": "balances",
      "outputs": [
        {
          "internalType": "uint256",
          "name": "",
          "type": "uint256"
        }
      ],
      "stateMutability": "view",
      "type": "function"
    },
    {
      "inputs": [],
      "name": "endICO",
      "outputs": [],
      "stateMutability": "nonpayable",
      "type": "function"
    },
    {
      "inputs": [],
      "name": "owner",
      "outputs": [
        {
          "internalType": "address",
          "name": "",
          "type": "address"
        }
      ],
      "stateMutability": "view",
      "type": "function"
    },
    {
      "inputs": [],
      "name": "purchaseTokensWithETH",
      "outputs": [],
      "stateMutability": "payable",
      "type": "function"
    },
    {
      "inputs": [
        {
          "internalType": "uint256",
          "name": "usdtAmount",
          "type": "uint256"
        }
      ],
      "name": "purchaseTokensWithUSDT",
      "outputs": [],
      "stateMutability": "nonpayable",
      "type": "function"
    },
    {
      "inputs": [],
      "name": "tokenAddress",
      "outputs": [
        {
          "internalType": "address",
          "name": "",
          "type": "address"
        }
      ],
      "stateMutability": "view",
      "type": "function"
    },
    {
      "inputs": [],
      "name": "tokenPrice",
      "outputs": [
        {
          "internalType": "uint256",
          "name": "",
          "type": "uint256"
        }
      ],
      "stateMutability": "view",
      "type": "function"
    },
    {
      "inputs": [],
      "name": "tokensSold",
      "outputs": [
        {
          "internalType": "uint256",
          "name": "",
          "type": "uint256"
        }
      ],
      "stateMutability": "view",
      "type": "function"
    },
    {
      "inputs": [],
      "name": "withdrawFunds",
      "outputs": [],
      "stateMutability": "nonpayable",
      "type": "function"
    }
  ],
  "bytecode": "0x608060405234801561001057600080fd5b506040516109b83803806109b883398101604081905261002f91610072565b60008054336001600160a01b031991821617909155600180549091166001600160a01b03939093169290921782556002556004805460ff191690911790556100ac565b6000806040838503121561008557600080fd5b82516001600160a01b038116811461009c57600080fd5b6020939093015192949293505050565b6108fd806100bb6000396000f3fe6080604052600436106100b15760003560e01c80637ff9b596116100695780639d76ea581161004e5780639d76ea581461018e578063d898e420146101ae578063f098efb3146101ce57600080fd5b80637ff9b596146101405780638da5cb5b1461015657600080fd5b806327e235e31161009a57806327e235e3146100d55780634f24840914610115578063518ab2a81461012a57600080fd5b8063235caa21146100b657806324600fc3146100c0575b600080fd5b6100be6101f8565b005b3480156100cc57600080fd5b506100be6103fa565b3480156100e157600080fd5b506101026100f03660046107f4565b60056020526000908152604090205481565b6040519081526020015b60405180910390f35b34801561012157600080fd5b506100be61049f565b34801561013657600080fd5b5061010260035481565b34801561014c57600080fd5b5061010260025481565b34801561016257600080fd5b50600054610176906001600160a01b031681565b6040516001600160a01b03909116815260200161010c565b34801561019a57600080fd5b50600154610176906001600160a01b031681565b3480156101ba57600080fd5b506100be6101c9366004610824565b610513565b3480156101da57600080fd5b506004546101e89060ff1681565b604051901515815260200161010c565b60045460ff1661024f5760405162461bcd60e51b815260206004820152601160248201527f49434f206973206e6f742061637469766500000000000000000000000000000060448201526064015b60405180910390fd5b60025460009061026734670de0b6b3a7640000610853565b6102719190610870565b9050600081116102c35760405162461bcd60e51b815260206004820152601560248201527f496e73756666696369656e74204554482073656e7400000000000000000000006044820152606401610246565b60015460405163a9059cbb60e01b8152336004820152602481018390526001600160a01b0390911690819063a9059cbb906044016020604051808303816000875af1158015610316573d6000803e3d6000fd5b505050506040513d601f19601f8201168201806040525081019061033a9190610892565b6103865760405162461bcd60e51b815260206004820152601560248201527f546f6b656e207472616e73666572206661696c656400000000000000000000006044820152606401610246565b816003600082825461039891906108b4565b909155505033600090815260056020526040812080548492906103bc9084906108b4565b909155505060405182815233907f8f28852646c20cc973d3a8218f7eefed58c25c909f78f0265af4818c3d4dc2719060200160405180910390a25050565b6000546001600160a01b031633146104625760405162461bcd60e51b815260206004820152602560248201527f4f6e6c7920746865206f776e65722063616e2063616c6c20746869732066756e60448201526431ba34b7b760d91b6064820152608401610246565b600080546040516001600160a01b03909116914780156108fc02929091818181858888f1935050505015801561049c573d6000803e3d6000fd5b50565b6000546001600160a01b031633146105075760405162461bcd60e51b815260206004820152602560248201527f4f6e6c7920746865206f776e65722063616e2063616c6c20746869732066756e60448201526431ba34b7b760d91b6064820152608401610246565b6004805460ff19169055565b60045460ff166105655760405162461bcd60e51b815260206004820152601160248201527f49434f206973206e6f74206163746976650000000000000000000000000000006044820152606401610246565b6001546040517f23b872dd000000000000000000000000000000000000000000000000000000008152336004820152306024820152604481018390526001600160a01b039091169081906323b872dd906064016020604051808303816000875af11580156105d7573d6000803e3d6000fd5b505050506040513d601f19601f820116820180604052508101906105fb9190610892565b6106475760405162461bcd60e51b815260206004820152601460248201527f55534454207472616e73666572206661696c65640000000000000000000000006044820152606401610246565b60025460009061065f84670de0b6b3a7640000610853565b6106699190610870565b9050600081116106bb5760405162461bcd60e51b815260206004820152601660248201527f496e73756666696369656e7420555344542073656e74000000000000000000006044820152606401610246565b60015460405163a9059cbb60e01b8152336004820152602481018390526001600160a01b0390911690819063a9059cbb906044016020604051808303816000875af115801561070e573d6000803e3d6000fd5b505050506040513d601f19601f820116820180604052508101906107329190610892565b61077e5760405162461bcd60e51b815260206004820152601560248201527f546f6b656e207472616e73666572206661696c656400000000000000000000006044820152606401610246565b816003600082825461079091906108b4565b909155505033600090815260056020526040812080548492906107b49084906108b4565b909155505060405182815233907f8f28852646c20cc973d3a8218f7eefed58c25c909f78f0265af4818c3d4dc2719060200160405180910390a250505050565b60006020828403121561080657600080fd5b81356001600160a01b038116811461081d57600080fd5b9392505050565b60006020828403121561083657600080fd5b5035919050565b634e487b7160e01b600052601160045260246000fd5b808202811582820484141761086a5761086a61083d565b92915050565b60008261088d57634e487b7160e01b600052601260045260246000fd5b500490565b6000602082840312156108a457600080fd5b8151801515811461081d57600080fd5b8082018082111561086a5761086a61083d56fea26469706673582212207b09ce9c62292de822e659b6d5ba9aec6452994e74411f0ffcb56e8934e2d05a64736f6c63430008130033",
  "linkReferences": {},
  "deployedLinkReferences": {}
}